{
  "contractName": "demo",
  "abi": [
    {
      "anonymous": false,
      "inputs": [
        {
          "indexed": true,
          "internalType": "address",
          "name": "previousOwner",
          "type": "address"
        },
        {
          "indexed": true,
          "internalType": "address",
          "name": "newOwner",
          "type": "address"
        }
      ],
      "name": "OwnershipTransferred",
      "type": "event"
    },
    {
      "inputs": [
        {
          "internalType": "address",
          "name": "_account",
          "type": "address"
        }
      ],
      "name": "addAddress",
      "outputs": [],
      "stateMutability": "nonpayable",
      "type": "function"
    },
    {
      "inputs": [
        {
          "internalType": "address",
          "name": "",
          "type": "address"
        }
      ],
      "name": "blacklist",
      "outputs": [
        {
          "internalType": "bool",
          "name": "",
          "type": "bool"
        }
      ],
      "stateMutability": "view",
      "type": "function",
      "constant": true
    },
    {
      "inputs": [],
      "name": "owner",
      "outputs": [
        {
          "internalType": "address",
          "name": "",
          "type": "address"
        }
      ],
      "stateMutability": "view",
      "type": "function",
      "constant": true
    },
    {
      "inputs": [
        {
          "internalType": "address",
          "name": "_account",
          "type": "address"
        }
      ],
      "name": "removeAddress",
      "outputs": [],
      "stateMutability": "nonpayable",
      "type": "function"
    },
    {
      "inputs": [],
      "name": "renounceOwnership",
      "outputs": [],
      "stateMutability": "nonpayable",
      "type": "function"
    },
    {
      "inputs": [
        {
          "internalType": "address[]",
          "name": "_accounts",
          "type": "address[]"
        }
      ],
      "name": "setAddresses",
      "outputs": [],
      "stateMutability": "nonpayable",
      "type": "function"
    },
    {
      "inputs": [
        {
          "internalType": "address",
          "name": "newOwner",
          "type": "address"
        }
      ],
      "name": "transferOwnership",
      "outputs": [],
      "stateMutability": "nonpayable",
      "type": "function"
    },
    {
      "inputs": [],
      "name": "doThing",
      "outputs": [
        {
          "internalType": "address",
          "name": "",
          "type": "address"
        }
      ],
      "stateMutability": "view",
      "type": "function",
      "constant": true
    }
  ],
  "bytecode": "0x608060405234801561001057600080fd5b5061002d61002261003260201b60201c565b61003a60201b60201c565b6100fe565b600033905090565b60008060009054906101000a900473ffffffffffffffffffffffffffffffffffffffff169050816000806101000a81548173ffffffffffffffffffffffffffffffffffffffff021916908373ffffffffffffffffffffffffffffffffffffffff1602179055508173ffffffffffffffffffffffffffffffffffffffff168173ffffffffffffffffffffffffffffffffffffffff167f8be0079c531659141344cd1fd0a4f28419497f9722a3daafe3b4186f6b6457e060405160405180910390a35050565b610aa28061010d6000396000f3fe608060405234801561001057600080fd5b50600436106100885760003560e01c8063b95717211161005b578063b9571721146100ed578063f2fde38b14610109578063f9f92be414610125578063fa62770c1461015557610088565b806338eada1c1461008d5780634ba79dfe146100a9578063715018a6146100c55780638da5cb5b146100cf575b600080fd5b6100a760048036038101906100a29190610612565b610173565b005b6100c360048036038101906100be9190610612565b6101d5565b005b6100cd61022f565b005b6100d7610243565b6040516100e4919061064e565b60405180910390f35b610107600480360381019061010291906107c2565b61026c565b005b610123600480360381019061011e9190610612565b61031c565b005b61013f600480360381019061013a9190610612565b61039f565b60405161014c9190610826565b60405180910390f35b61015d6103bf565b60405161016a919061064e565b60405180910390f35b61017b610456565b60018060008373ffffffffffffffffffffffffffffffffffffffff1673ffffffffffffffffffffffffffffffffffffffff16815260200190815260200160002060006101000a81548160ff02191690831515021790555050565b6101dd610456565b600160008273ffffffffffffffffffffffffffffffffffffffff1673ffffffffffffffffffffffffffffffffffffffff16815260200190815260200160002060006101000a81549060ff021916905550565b610237610456565b61024160006104d4565b565b60008060009054906101000a900473ffffffffffffffffffffffffffffffffffffffff16905090565b610274610456565b60005b8151811015610318573073ffffffffffffffffffffffffffffffffffffffff166338eada1c8383815181106102af576102ae610841565b5b60200260200101516040518263ffffffff1660e01b81526004016102d3919061064e565b600060405180830381600087803b1580156102ed57600080fd5b505af1158015610301573d6000803e3d6000fd5b505050508080610310906108a9565b915050610277565b5050565b610324610456565b600073ffffffffffffffffffffffffffffffffffffffff168173ffffffffffffffffffffffffffffffffffffffff1603610393576040517f08c379a000000000000000000000000000000000000000000000000000000000815260040161038a90610974565b60405180910390fd5b61039c816104d4565b50565b60016020528060005260406000206000915054906101000a900460ff1681565b600033600160008273ffffffffffffffffffffffffffffffffffffffff1673ffffffffffffffffffffffffffffffffffffffff16815260200190815260200160002060009054906101000a900460ff161561044f576040517f08c379a0000000000000000000000000000000000000000000000000000000008152600401610446906109e0565b60405180910390fd5b3391505090565b61045e610598565b73ffffffffffffffffffffffffffffffffffffffff1661047c610243565b73ffffffffffffffffffffffffffffffffffffffff16146104d2576040517f08c379a00000000000000000000000000000000000000000000000000000000081526004016104c990610a4c565b60405180910390fd5b565b60008060009054906101000a900473ffffffffffffffffffffffffffffffffffffffff169050816000806101000a81548173ffffffffffffffffffffffffffffffffffffffff021916908373ffffffffffffffffffffffffffffffffffffffff1602179055508173ffffffffffffffffffffffffffffffffffffffff168173ffffffffffffffffffffffffffffffffffffffff167f8be0079c531659141344cd1fd0a4f28419497f9722a3daafe3b4186f6b6457e060405160405180910390a35050565b600033905090565b6000604051905090565b600080fd5b600080fd5b600073ffffffffffffffffffffffffffffffffffffffff82169050919050565b60006105df826105b4565b9050919050565b6105ef816105d4565b81146105fa57600080fd5b50565b60008135905061060c816105e6565b92915050565b600060208284031215610628576106276105aa565b5b6000610636848285016105fd565b91505092915050565b610648816105d4565b82525050565b6000602082019050610663600083018461063f565b92915050565b600080fd5b6000601f19601f8301169050919050565b7f4e487b7100000000000000000000000000000000000000000000000000000000600052604160045260246000fd5b6106b78261066e565b810181811067ffffffffffffffff821117156106d6576106d561067f565b5b80604052505050565b60006106e96105a0565b90506106f582826106ae565b919050565b600067ffffffffffffffff8211156107155761071461067f565b5b602082029050602081019050919050565b600080fd5b600061073e610739846106fa565b6106df565b9050808382526020820190506020840283018581111561076157610760610726565b5b835b8181101561078a578061077688826105fd565b845260208401935050602081019050610763565b5050509392505050565b600082601f8301126107a9576107a8610669565b5b81356107b984826020860161072b565b91505092915050565b6000602082840312156107d8576107d76105aa565b5b600082013567ffffffffffffffff8111156107f6576107f56105af565b5b61080284828501610794565b91505092915050565b60008115159050919050565b6108208161080b565b82525050565b600060208201905061083b6000830184610817565b92915050565b7f4e487b7100000000000000000000000000000000000000000000000000000000600052603260045260246000fd5b7f4e487b7100000000000000000000000000000000000000000000000000000000600052601160045260246000fd5b6000819050919050565b60006108b48261089f565b91507fffffffffffffffffffffffffffffffffffffffffffffffffffffffffffffffff82036108e6576108e5610870565b5b600182019050919050565b600082825260208201905092915050565b7f4f776e61626c653a206e6577206f776e657220697320746865207a65726f206160008201527f6464726573730000000000000000000000000000000000000000000000000000602082015250565b600061095e6026836108f1565b915061096982610902565b604082019050919050565b6000602082019050818103600083015261098d81610951565b9050919050565b7f6572726f723a206163637420697320626c61636b6c6973746564000000000000600082015250565b60006109ca601a836108f1565b91506109d582610994565b602082019050919050565b600060208201905081810360008301526109f9816109bd565b9050919050565b7f4f776e61626c653a2063616c6c6572206973206e6f7420746865206f776e6572600082015250565b6000610a366020836108f1565b9150610a4182610a00565b602082019050919050565b60006020820190508181036000830152610a6581610a29565b905091905056fea2646970667358221220d4320bbe634e6f8535bb0f35938e6fe4f5b43a859b3181bf5aa114fd906bb26f64736f6c63430008110033",
  "immutableReferences": {},
  "source": "// SPDX-License-Identifier: MIT\npragma solidity >=0.4.22 <0.9.0;\n\nimport { sanctioned } from \"./sanctioned.sol\";\n\n\ncontract demo is sanctioned {\n    // This contract inherits the `notBlacklisted` modifier from\n    // `sanctioned` and applies it to the `doThing` function, which\n    // causes that calls to `destroy` only have an effect if\n    // they are made by the stored owner.\n    function doThing() public view notBlacklisted(msg.sender) returns(address) {\n        return msg.sender;\n    }\n}\n",
  "sourcePath": "/Users/helenamerk/Documents/projects/0xFK/contracts/demo.sol",
  "compiler": {
    "name": "solc",
    "version": "0.8.17+commit.8df45f5f.Emscripten.clang"
  },
  "schemaVersion": "3.4.10",
  "updatedAt": "2022-11-13T01:35:30.235Z",
  "networkType": "ethereum",
  "devdoc": {
    "kind": "dev",
    "methods": {
      "owner()": {
        "details": "Returns the address of the current owner."
      },
      "renounceOwnership()": {
        "details": "Leaves the contract without owner. It will not be possible to call `onlyOwner` functions anymore. Can only be called by the current owner. NOTE: Renouncing ownership will leave the contract without an owner, thereby removing any functionality that is only available to the owner."
      },
      "transferOwnership(address)": {
        "details": "Transfers ownership of the contract to a new account (`newOwner`). Can only be called by the current owner."
      }
    },
    "version": 1
  },
  "userdoc": {
    "kind": "user",
    "methods": {},
    "version": 1
  }
}