{
  "contractName": "OFAK",
  "abi": [
    {
      "inputs": [
        {
          "internalType": "address",
          "name": "",
          "type": "address"
        }
      ],
      "name": "blacklist",
      "outputs": [
        {
          "internalType": "bool",
          "name": "",
          "type": "bool"
        }
      ],
      "stateMutability": "view",
      "type": "function",
      "constant": true
    },
    {
      "inputs": [],
      "name": "getName",
      "outputs": [
        {
          "internalType": "string",
          "name": "",
          "type": "string"
        }
      ],
      "stateMutability": "view",
      "type": "function",
      "constant": true
    },
    {
      "inputs": [
        {
          "internalType": "address",
          "name": "_account",
          "type": "address"
        }
      ],
      "name": "addAddress",
      "outputs": [],
      "stateMutability": "nonpayable",
      "type": "function"
    },
    {
      "inputs": [
        {
          "internalType": "address",
          "name": "_account",
          "type": "address"
        }
      ],
      "name": "removeAddress",
      "outputs": [],
      "stateMutability": "nonpayable",
      "type": "function"
    },
    {
      "inputs": [],
      "name": "doThing",
      "outputs": [
        {
          "internalType": "address",
          "name": "",
          "type": "address"
        }
      ],
      "stateMutability": "view",
      "type": "function",
      "constant": true
    }
  ],
  "bytecode": "0x60806040526040518060400160405280600481526020017f43656c6f00000000000000000000000000000000000000000000000000000000815250600090816200004a9190620002d9565b503480156200005857600080fd5b50620003c0565b600081519050919050565b7f4e487b7100000000000000000000000000000000000000000000000000000000600052604160045260246000fd5b7f4e487b7100000000000000000000000000000000000000000000000000000000600052602260045260246000fd5b60006002820490506001821680620000e157607f821691505b602082108103620000f757620000f662000099565b5b50919050565b60008190508160005260206000209050919050565b60006020601f8301049050919050565b600082821b905092915050565b600060088302620001617fffffffffffffffffffffffffffffffffffffffffffffffffffffffffffffffff8262000122565b6200016d868362000122565b95508019841693508086168417925050509392505050565b6000819050919050565b6000819050919050565b6000620001ba620001b4620001ae8462000185565b6200018f565b62000185565b9050919050565b6000819050919050565b620001d68362000199565b620001ee620001e582620001c1565b8484546200012f565b825550505050565b600090565b62000205620001f6565b62000212818484620001cb565b505050565b5b818110156200023a576200022e600082620001fb565b60018101905062000218565b5050565b601f82111562000289576200025381620000fd565b6200025e8462000112565b810160208510156200026e578190505b620002866200027d8562000112565b83018262000217565b50505b505050565b600082821c905092915050565b6000620002ae600019846008026200028e565b1980831691505092915050565b6000620002c983836200029b565b9150826002028217905092915050565b620002e4826200005f565b67ffffffffffffffff8111156200030057620002ff6200006a565b5b6200030c8254620000c8565b620003198282856200023e565b600060209050601f8311600181146200035157600084156200033c578287015190505b620003488582620002bb565b865550620003b8565b601f1984166200036186620000fd565b60005b828110156200038b5784890151825560018201915060208501945060208101905062000364565b86831015620003ab5784890151620003a7601f8916826200029b565b8355505b6001600288020188555050505b505050505050565b61059980620003d06000396000f3fe608060405234801561001057600080fd5b50600436106100575760003560e01c806317d7de7c1461005c57806338eada1c1461007a5780634ba79dfe14610096578063f9f92be4146100b2578063fa62770c146100e2575b600080fd5b610064610100565b6040516100719190610385565b60405180910390f35b610094600480360381019061008f919061040a565b610192565b005b6100b060048036038101906100ab919061040a565b6101ec565b005b6100cc60048036038101906100c7919061040a565b61023e565b6040516100d99190610452565b60405180910390f35b6100ea61025e565b6040516100f7919061047c565b60405180910390f35b60606000805461010f906104c6565b80601f016020809104026020016040519081016040528092919081815260200182805461013b906104c6565b80156101885780601f1061015d57610100808354040283529160200191610188565b820191906000526020600020905b81548152906001019060200180831161016b57829003601f168201915b5050505050905090565b60018060008373ffffffffffffffffffffffffffffffffffffffff1673ffffffffffffffffffffffffffffffffffffffff16815260200190815260200160002060006101000a81548160ff02191690831515021790555050565b600160008273ffffffffffffffffffffffffffffffffffffffff1673ffffffffffffffffffffffffffffffffffffffff16815260200190815260200160002060006101000a81549060ff021916905550565b60016020528060005260406000206000915054906101000a900460ff1681565b600033600160008273ffffffffffffffffffffffffffffffffffffffff1673ffffffffffffffffffffffffffffffffffffffff16815260200190815260200160002060009054906101000a900460ff16156102ee576040517f08c379a00000000000000000000000000000000000000000000000000000000081526004016102e590610543565b60405180910390fd5b3391505090565b600081519050919050565b600082825260208201905092915050565b60005b8381101561032f578082015181840152602081019050610314565b60008484015250505050565b6000601f19601f8301169050919050565b6000610357826102f5565b6103618185610300565b9350610371818560208601610311565b61037a8161033b565b840191505092915050565b6000602082019050818103600083015261039f818461034c565b905092915050565b600080fd5b600073ffffffffffffffffffffffffffffffffffffffff82169050919050565b60006103d7826103ac565b9050919050565b6103e7816103cc565b81146103f257600080fd5b50565b600081359050610404816103de565b92915050565b6000602082840312156104205761041f6103a7565b5b600061042e848285016103f5565b91505092915050565b60008115159050919050565b61044c81610437565b82525050565b60006020820190506104676000830184610443565b92915050565b610476816103cc565b82525050565b6000602082019050610491600083018461046d565b92915050565b7f4e487b7100000000000000000000000000000000000000000000000000000000600052602260045260246000fd5b600060028204905060018216806104de57607f821691505b6020821081036104f1576104f0610497565b5b50919050565b7f6572726f723a206163637420697320626c61636b6c6973746564000000000000600082015250565b600061052d601a83610300565b9150610538826104f7565b602082019050919050565b6000602082019050818103600083015261055c81610520565b905091905056fea26469706673582212204052954e5cc807f2c47be654b2b4e82e23f4204de0a0bb24a618a3b21d4247b464736f6c63430008110033",
  "immutableReferences": {},
  "source": "// SPDX-License-Identifier: MIT\npragma solidity >=0.4.22 <0.9.0;\n\n// import '' as ownable;\n\ncontract OFAK {\n  string name = 'Celo';\n  mapping(address => bool) public blacklist;\n\n\n  function getName() public view returns (string memory) {\n    return name;\n  }\n\n  function addAddress(address _account) external {\n    blacklist[_account] = true;\n  }\n\n  function removeAddress(address _account) external {\n    delete blacklist[_account];\n  }\n\n  modifier notBlacklisted(address _account) {\n    require(!blacklist[_account], \"error: acct is blacklisted\");\n    _;\n  }\n\n  // \n  function doThing() public view notBlacklisted(msg.sender) returns(address) {\n    return msg.sender;\n  }\n}",
  "sourcePath": "/Users/helenamerk/Documents/projects/0xFK/contracts/OFAK.sol",
  "compiler": {
    "name": "solc",
    "version": "0.8.17+commit.8df45f5f.Emscripten.clang"
  },
  "schemaVersion": "3.4.10",
  "updatedAt": "2022-11-13T00:15:01.204Z",
  "networkType": "ethereum",
  "devdoc": {
    "kind": "dev",
    "methods": {},
    "version": 1
  },
  "userdoc": {
    "kind": "user",
    "methods": {},
    "version": 1
  }
}