{
  "contractName": "sanctioned",
  "abi": [
    {
      "anonymous": false,
      "inputs": [
        {
          "indexed": true,
          "internalType": "address",
          "name": "previousOwner",
          "type": "address"
        },
        {
          "indexed": true,
          "internalType": "address",
          "name": "newOwner",
          "type": "address"
        }
      ],
      "name": "OwnershipTransferred",
      "type": "event"
    },
    {
      "inputs": [
        {
          "internalType": "address",
          "name": "",
          "type": "address"
        }
      ],
      "name": "blacklist",
      "outputs": [
        {
          "internalType": "bool",
          "name": "",
          "type": "bool"
        }
      ],
      "stateMutability": "view",
      "type": "function",
      "constant": true
    },
    {
      "inputs": [],
      "name": "owner",
      "outputs": [
        {
          "internalType": "address",
          "name": "",
          "type": "address"
        }
      ],
      "stateMutability": "view",
      "type": "function",
      "constant": true
    },
    {
      "inputs": [],
      "name": "renounceOwnership",
      "outputs": [],
      "stateMutability": "nonpayable",
      "type": "function"
    },
    {
      "inputs": [
        {
          "internalType": "address",
          "name": "newOwner",
          "type": "address"
        }
      ],
      "name": "transferOwnership",
      "outputs": [],
      "stateMutability": "nonpayable",
      "type": "function"
    },
    {
      "inputs": [
        {
          "internalType": "address",
          "name": "_account",
          "type": "address"
        }
      ],
      "name": "addAddress",
      "outputs": [],
      "stateMutability": "nonpayable",
      "type": "function"
    },
    {
      "inputs": [
        {
          "internalType": "address[]",
          "name": "_accounts",
          "type": "address[]"
        }
      ],
      "name": "setAddresses",
      "outputs": [],
      "stateMutability": "nonpayable",
      "type": "function"
    },
    {
      "inputs": [
        {
          "internalType": "address",
          "name": "_account",
          "type": "address"
        }
      ],
      "name": "removeAddress",
      "outputs": [],
      "stateMutability": "nonpayable",
      "type": "function"
    }
  ],
  "bytecode": "0x608060405234801561001057600080fd5b5061002d61002261003260201b60201c565b61003a60201b60201c565b6100fe565b600033905090565b60008060009054906101000a900473ffffffffffffffffffffffffffffffffffffffff169050816000806101000a81548173ffffffffffffffffffffffffffffffffffffffff021916908373ffffffffffffffffffffffffffffffffffffffff1602179055508173ffffffffffffffffffffffffffffffffffffffff168173ffffffffffffffffffffffffffffffffffffffff167f8be0079c531659141344cd1fd0a4f28419497f9722a3daafe3b4186f6b6457e060405160405180910390a35050565b6109768061010d6000396000f3fe608060405234801561001057600080fd5b506004361061007d5760003560e01c80638da5cb5b1161005b5780638da5cb5b146100c4578063b9571721146100e2578063f2fde38b146100fe578063f9f92be41461011a5761007d565b806338eada1c146100825780634ba79dfe1461009e578063715018a6146100ba575b600080fd5b61009c60048036038101906100979190610552565b61014a565b005b6100b860048036038101906100b39190610552565b6101ac565b005b6100c2610206565b005b6100cc61021a565b6040516100d9919061058e565b60405180910390f35b6100fc60048036038101906100f79190610702565b610243565b005b61011860048036038101906101139190610552565b6102f3565b005b610134600480360381019061012f9190610552565b610376565b6040516101419190610766565b60405180910390f35b610152610396565b60018060008373ffffffffffffffffffffffffffffffffffffffff1673ffffffffffffffffffffffffffffffffffffffff16815260200190815260200160002060006101000a81548160ff02191690831515021790555050565b6101b4610396565b600160008273ffffffffffffffffffffffffffffffffffffffff1673ffffffffffffffffffffffffffffffffffffffff16815260200190815260200160002060006101000a81549060ff021916905550565b61020e610396565b6102186000610414565b565b60008060009054906101000a900473ffffffffffffffffffffffffffffffffffffffff16905090565b61024b610396565b60005b81518110156102ef573073ffffffffffffffffffffffffffffffffffffffff166338eada1c83838151811061028657610285610781565b5b60200260200101516040518263ffffffff1660e01b81526004016102aa919061058e565b600060405180830381600087803b1580156102c457600080fd5b505af11580156102d8573d6000803e3d6000fd5b5050505080806102e7906107e9565b91505061024e565b5050565b6102fb610396565b600073ffffffffffffffffffffffffffffffffffffffff168173ffffffffffffffffffffffffffffffffffffffff160361036a576040517f08c379a0000000000000000000000000000000000000000000000000000000008152600401610361906108b4565b60405180910390fd5b61037381610414565b50565b60016020528060005260406000206000915054906101000a900460ff1681565b61039e6104d8565b73ffffffffffffffffffffffffffffffffffffffff166103bc61021a565b73ffffffffffffffffffffffffffffffffffffffff1614610412576040517f08c379a000000000000000000000000000000000000000000000000000000000815260040161040990610920565b60405180910390fd5b565b60008060009054906101000a900473ffffffffffffffffffffffffffffffffffffffff169050816000806101000a81548173ffffffffffffffffffffffffffffffffffffffff021916908373ffffffffffffffffffffffffffffffffffffffff1602179055508173ffffffffffffffffffffffffffffffffffffffff168173ffffffffffffffffffffffffffffffffffffffff167f8be0079c531659141344cd1fd0a4f28419497f9722a3daafe3b4186f6b6457e060405160405180910390a35050565b600033905090565b6000604051905090565b600080fd5b600080fd5b600073ffffffffffffffffffffffffffffffffffffffff82169050919050565b600061051f826104f4565b9050919050565b61052f81610514565b811461053a57600080fd5b50565b60008135905061054c81610526565b92915050565b600060208284031215610568576105676104ea565b5b60006105768482850161053d565b91505092915050565b61058881610514565b82525050565b60006020820190506105a3600083018461057f565b92915050565b600080fd5b6000601f19601f8301169050919050565b7f4e487b7100000000000000000000000000000000000000000000000000000000600052604160045260246000fd5b6105f7826105ae565b810181811067ffffffffffffffff82111715610616576106156105bf565b5b80604052505050565b60006106296104e0565b905061063582826105ee565b919050565b600067ffffffffffffffff821115610655576106546105bf565b5b602082029050602081019050919050565b600080fd5b600061067e6106798461063a565b61061f565b905080838252602082019050602084028301858111156106a1576106a0610666565b5b835b818110156106ca57806106b6888261053d565b8452602084019350506020810190506106a3565b5050509392505050565b600082601f8301126106e9576106e86105a9565b5b81356106f984826020860161066b565b91505092915050565b600060208284031215610718576107176104ea565b5b600082013567ffffffffffffffff811115610736576107356104ef565b5b610742848285016106d4565b91505092915050565b60008115159050919050565b6107608161074b565b82525050565b600060208201905061077b6000830184610757565b92915050565b7f4e487b7100000000000000000000000000000000000000000000000000000000600052603260045260246000fd5b7f4e487b7100000000000000000000000000000000000000000000000000000000600052601160045260246000fd5b6000819050919050565b60006107f4826107df565b91507fffffffffffffffffffffffffffffffffffffffffffffffffffffffffffffffff8203610826576108256107b0565b5b600182019050919050565b600082825260208201905092915050565b7f4f776e61626c653a206e6577206f776e657220697320746865207a65726f206160008201527f6464726573730000000000000000000000000000000000000000000000000000602082015250565b600061089e602683610831565b91506108a982610842565b604082019050919050565b600060208201905081810360008301526108cd81610891565b9050919050565b7f4f776e61626c653a2063616c6c6572206973206e6f7420746865206f776e6572600082015250565b600061090a602083610831565b9150610915826108d4565b602082019050919050565b60006020820190508181036000830152610939816108fd565b905091905056fea264697066735822122052bb1d6b3e094a3aed3cefe5ff9b9fe7ad2edacfbb35805dbdbcbc71ebe657e464736f6c63430008110033",
  "immutableReferences": {},
  "source": "// SPDX-License-Identifier: MIT\npragma solidity >=0.4.22 <0.9.0;\n\nimport \"@openzeppelin/contracts/access/Ownable.sol\";\n\ncontract sanctioned is Ownable {\n  mapping(address => bool) public blacklist;\n\n  // todo: add isOwner modifier\n  function addAddress(address _account) onlyOwner external {\n    blacklist[_account] = true;\n  }\n\n  // todo: add isOwner modifier\n  function setAddresses(address[] memory _accounts) onlyOwner external {\n    for (uint i=0; i < _accounts.length; i++) {\n      this.addAddress(_accounts[i]);\n    }\n  }\n\n  // todo: add isOwner modifier\n  function removeAddress(address _account) onlyOwner external {\n    delete blacklist[_account];\n  } \n\n  // This contract only defines a modifier but does not use\n  // it: it will be used in derived contracts.\n  // The function body is inserted where the special symbol\n  // `_;` in the definition of a modifier appears.\n  // This means that if the owner calls this function, the\n  // function is executed and otherwise, an exception is\n  // thrown.\n  modifier notBlacklisted(address _account) {\n    require(!blacklist[_account], \"error: acct is blacklisted\");\n    _;\n  }\n}\n\n\n\n/**\nDeploying:\ntruffle migrate --network test\ntruffle console --network test\n\n\nManual Testing:\n\nsanctionedContract = await sanctioned.deployed()\ndemoContract = await demo.deployed()\n\ncontract.doThing()\n>> success; ADDRESS returned\ncontract.addAddress(ADDRESS)\ncontract.doThing()\n>> error\ncontract.removeAddress(ADDRESS)\ncontract.doThing()\n>> success; ADDRESS returned\n */",
  "sourcePath": "/Users/helenamerk/Documents/projects/0xFK/contracts/sanctioned.sol",
  "compiler": {
    "name": "solc",
    "version": "0.8.17+commit.8df45f5f.Emscripten.clang"
  },
  "schemaVersion": "3.4.10",
  "updatedAt": "2022-11-13T01:35:30.237Z",
  "networkType": "ethereum",
  "devdoc": {
    "kind": "dev",
    "methods": {
      "owner()": {
        "details": "Returns the address of the current owner."
      },
      "renounceOwnership()": {
        "details": "Leaves the contract without owner. It will not be possible to call `onlyOwner` functions anymore. Can only be called by the current owner. NOTE: Renouncing ownership will leave the contract without an owner, thereby removing any functionality that is only available to the owner."
      },
      "transferOwnership(address)": {
        "details": "Transfers ownership of the contract to a new account (`newOwner`). Can only be called by the current owner."
      }
    },
    "version": 1
  },
  "userdoc": {
    "kind": "user",
    "methods": {},
    "version": 1
  }
}